{
  "contractName": "DiplomaVerification",
  "abi": [
    {
      "inputs": [],
      "stateMutability": "nonpayable",
      "type": "constructor"
    },
    {
      "anonymous": false,
      "inputs": [
        {
          "indexed": false,
          "internalType": "address",
          "name": "student",
          "type": "address"
        },
        {
          "indexed": false,
          "internalType": "address",
          "name": "employer",
          "type": "address"
        }
      ],
      "name": "AccessGranted",
      "type": "event"
    },
    {
      "anonymous": false,
      "inputs": [
        {
          "indexed": false,
          "internalType": "address",
          "name": "student",
          "type": "address"
        }
      ],
      "name": "DiplomaIssued",
      "type": "event"
    },
    {
      "anonymous": false,
      "inputs": [
        {
          "indexed": false,
          "internalType": "address",
          "name": "student",
          "type": "address"
        }
      ],
      "name": "DiplomaRevoked",
      "type": "event"
    },
    {
      "anonymous": false,
      "inputs": [
        {
          "indexed": false,
          "internalType": "address",
          "name": "student",
          "type": "address"
        },
        {
          "indexed": false,
          "internalType": "string",
          "name": "course",
          "type": "string"
        }
      ],
      "name": "GradeSubmitted",
      "type": "event"
    },
    {
      "anonymous": false,
      "inputs": [
        {
          "indexed": false,
          "internalType": "address",
          "name": "student",
          "type": "address"
        },
        {
          "indexed": false,
          "internalType": "address",
          "name": "university",
          "type": "address"
        }
      ],
      "name": "StudentEnrolled",
      "type": "event"
    },
    {
      "anonymous": false,
      "inputs": [
        {
          "indexed": false,
          "internalType": "address",
          "name": "university",
          "type": "address"
        }
      ],
      "name": "UniversityRegistered",
      "type": "event"
    },
    {
      "inputs": [
        {
          "internalType": "address",
          "name": "",
          "type": "address"
        },
        {
          "internalType": "address",
          "name": "",
          "type": "address"
        }
      ],
      "name": "accessPermissions",
      "outputs": [
        {
          "internalType": "bool",
          "name": "",
          "type": "bool"
        }
      ],
      "stateMutability": "view",
      "type": "function",
      "constant": true
    },
    {
      "inputs": [
        {
          "internalType": "address",
          "name": "",
          "type": "address"
        }
      ],
      "name": "diplomas",
      "outputs": [
        {
          "internalType": "bool",
          "name": "isValid",
          "type": "bool"
        },
        {
          "internalType": "address",
          "name": "university",
          "type": "address"
        },
        {
          "internalType": "uint256",
          "name": "issueDate",
          "type": "uint256"
        }
      ],
      "stateMutability": "view",
      "type": "function",
      "constant": true
    },
    {
      "inputs": [
        {
          "internalType": "address",
          "name": "",
          "type": "address"
        },
        {
          "internalType": "string",
          "name": "",
          "type": "string"
        }
      ],
      "name": "grades",
      "outputs": [
        {
          "internalType": "bool",
          "name": "",
          "type": "bool"
        }
      ],
      "stateMutability": "view",
      "type": "function",
      "constant": true
    },
    {
      "inputs": [],
      "name": "owner",
      "outputs": [
        {
          "internalType": "address",
          "name": "",
          "type": "address"
        }
      ],
      "stateMutability": "view",
      "type": "function",
      "constant": true
    },
    {
      "inputs": [
        {
          "internalType": "address",
          "name": "",
          "type": "address"
        }
      ],
      "name": "students",
      "outputs": [
        {
          "internalType": "bool",
          "name": "isEnrolled",
          "type": "bool"
        },
        {
          "internalType": "address",
          "name": "university",
          "type": "address"
        },
        {
          "internalType": "uint256",
          "name": "totalCredits",
          "type": "uint256"
        },
        {
          "internalType": "bool",
          "name": "hasDiploma",
          "type": "bool"
        }
      ],
      "stateMutability": "view",
      "type": "function",
      "constant": true
    },
    {
      "inputs": [
        {
          "internalType": "address",
          "name": "",
          "type": "address"
        }
      ],
      "name": "universities",
      "outputs": [
        {
          "internalType": "bool",
          "name": "isRegistered",
          "type": "bool"
        },
        {
          "internalType": "string",
          "name": "name",
          "type": "string"
        }
      ],
      "stateMutability": "view",
      "type": "function",
      "constant": true
    },
    {
      "inputs": [
        {
          "internalType": "string",
          "name": "_name",
          "type": "string"
        }
      ],
      "name": "registerUniversity",
      "outputs": [],
      "stateMutability": "nonpayable",
      "type": "function"
    },
    {
      "inputs": [
        {
          "internalType": "address",
          "name": "_student",
          "type": "address"
        }
      ],
      "name": "enrollStudent",
      "outputs": [],
      "stateMutability": "nonpayable",
      "type": "function"
    },
    {
      "inputs": [
        {
          "internalType": "address",
          "name": "_student",
          "type": "address"
        },
        {
          "internalType": "string",
          "name": "_course",
          "type": "string"
        },
        {
          "internalType": "uint256",
          "name": "_credits",
          "type": "uint256"
        }
      ],
      "name": "submitGrade",
      "outputs": [],
      "stateMutability": "nonpayable",
      "type": "function"
    },
    {
      "inputs": [
        {
          "internalType": "address",
          "name": "_student",
          "type": "address"
        }
      ],
      "name": "issueDiploma",
      "outputs": [],
      "stateMutability": "nonpayable",
      "type": "function"
    },
    {
      "inputs": [
        {
          "internalType": "address",
          "name": "_employer",
          "type": "address"
        }
      ],
      "name": "grantAccess",
      "outputs": [],
      "stateMutability": "nonpayable",
      "type": "function"
    },
    {
      "inputs": [
        {
          "internalType": "address",
          "name": "_student",
          "type": "address"
        }
      ],
      "name": "verifyDiploma",
      "outputs": [
        {
          "internalType": "bool",
          "name": "valid",
          "type": "bool"
        },
        {
          "internalType": "address",
          "name": "university",
          "type": "address"
        },
        {
          "internalType": "uint256",
          "name": "issueDate",
          "type": "uint256"
        }
      ],
      "stateMutability": "view",
      "type": "function",
      "constant": true
    },
    {
      "inputs": [
        {
          "internalType": "address",
          "name": "_student",
          "type": "address"
        }
      ],
      "name": "revokeDiploma",
      "outputs": [],
      "stateMutability": "nonpayable",
      "type": "function"
    }
  ],
  "bytecode": "0x608060405234801561001057600080fd5b50336000806101000a81548173ffffffffffffffffffffffffffffffffffffffff021916908373ffffffffffffffffffffffffffffffffffffffff160217905550611fe5806100606000396000f3fe608060405234801561001057600080fd5b50600436106100cf5760003560e01c80636faa93d11161008c578063a6c807a911610066578063a6c807a914610226578063b509954114610259578063bb341c8514610275578063f099556014610291576100cf565b80636faa93d1146101ba57806376bfbef9146101d65780638da5cb5b14610208576100cf565b80630ae5e739146100d4578063238ebbe0146100f05780632a207eae1461010c5780633ecac8d814610128578063529f615f1461015857806364b3b5251461018a575b600080fd5b6100ee60048036038101906100e9919061151f565b6102c2565b005b61010a6004803603810190610105919061151f565b610422565b005b6101266004803603810190610121919061151f565b6107d2565b005b610142600480360381019061013d9190611584565b610a3e565b60405161014f9190611ae2565b60405180910390f35b610172600480360381019061016d919061151f565b610a83565b60405161018193929190611afd565b60405180910390f35b6101a4600480360381019061019f9190611548565b610ada565b6040516101b19190611ae2565b60405180910390f35b6101d460048036038101906101cf919061163f565b610b09565b005b6101f060048036038101906101eb919061151f565b610c6a565b6040516101ff93929190611afd565b60405180910390f35b610210610e1e565b60405161021d9190611a6e565b60405180910390f35b610240600480360381019061023b919061151f565b610e42565b6040516102509493929190611b34565b60405180910390f35b610273600480360381019061026e919061151f565b610eac565b005b61028f600480360381019061028a91906115d8565b61105f565b005b6102ab60048036038101906102a6919061151f565b611331565b6040516102b9929190611b79565b60405180910390f35b600260003373ffffffffffffffffffffffffffffffffffffffff1673ffffffffffffffffffffffffffffffffffffffff16815260200190815260200160002060020160009054906101000a900460ff16610351576040517f08c379a000000000000000000000000000000000000000000000000000000000815260040161034890611ce9565b60405180910390fd5b6001600560003373ffffffffffffffffffffffffffffffffffffffff1673ffffffffffffffffffffffffffffffffffffffff16815260200190815260200160002060008373ffffffffffffffffffffffffffffffffffffffff1673ffffffffffffffffffffffffffffffffffffffff16815260200190815260200160002060006101000a81548160ff0219169083151502179055507f9f520b3bfc56d06f7065d10b4683b3f57ac8895d5026cd176dee95ce1454cb8d3382604051610417929190611a89565b60405180910390a150565b600160003373ffffffffffffffffffffffffffffffffffffffff1673ffffffffffffffffffffffffffffffffffffffff16815260200190815260200160002060000160009054906101000a900460ff166104b1576040517f08c379a00000000000000000000000000000000000000000000000000000000081526004016104a890611bc9565b60405180910390fd5b600260008273ffffffffffffffffffffffffffffffffffffffff1673ffffffffffffffffffffffffffffffffffffffff16815260200190815260200160002060000160009054906101000a900460ff16610540576040517f08c379a000000000000000000000000000000000000000000000000000000000815260040161053790611be9565b60405180910390fd5b60b4600260008373ffffffffffffffffffffffffffffffffffffffff1673ffffffffffffffffffffffffffffffffffffffff1681526020019081526020016000206001015410156105c6576040517f08c379a00000000000000000000000000000000000000000000000000000000081526004016105bd90611ba9565b60405180910390fd5b600260008273ffffffffffffffffffffffffffffffffffffffff1673ffffffffffffffffffffffffffffffffffffffff16815260200190815260200160002060020160009054906101000a900460ff1615610656576040517f08c379a000000000000000000000000000000000000000000000000000000000815260040161064d90611c29565b60405180910390fd5b6001600260008373ffffffffffffffffffffffffffffffffffffffff1673ffffffffffffffffffffffffffffffffffffffff16815260200190815260200160002060020160006101000a81548160ff02191690831515021790555060405180606001604052806001151581526020013373ffffffffffffffffffffffffffffffffffffffff16815260200142815250600460008373ffffffffffffffffffffffffffffffffffffffff1673ffffffffffffffffffffffffffffffffffffffff16815260200190815260200160002060008201518160000160006101000a81548160ff02191690831515021790555060208201518160000160016101000a81548173ffffffffffffffffffffffffffffffffffffffff021916908373ffffffffffffffffffffffffffffffffffffffff160217905550604082015181600101559050507f2ed866a1d31aa00e3f4a8ba7850bcbab8c260255b88f06c7b904e1fb4afc46bc816040516107c79190611a6e565b60405180910390a150565b600160003373ffffffffffffffffffffffffffffffffffffffff1673ffffffffffffffffffffffffffffffffffffffff16815260200190815260200160002060000160009054906101000a900460ff16610861576040517f08c379a000000000000000000000000000000000000000000000000000000000815260040161085890611c49565b60405180910390fd5b600260008273ffffffffffffffffffffffffffffffffffffffff1673ffffffffffffffffffffffffffffffffffffffff16815260200190815260200160002060000160009054906101000a900460ff16156108f1576040517f08c379a00000000000000000000000000000000000000000000000000000000081526004016108e890611cc9565b60405180910390fd5b60405180608001604052806001151581526020013373ffffffffffffffffffffffffffffffffffffffff1681526020016000815260200160001515815250600260008373ffffffffffffffffffffffffffffffffffffffff1673ffffffffffffffffffffffffffffffffffffffff16815260200190815260200160002060008201518160000160006101000a81548160ff02191690831515021790555060208201518160000160016101000a81548173ffffffffffffffffffffffffffffffffffffffff021916908373ffffffffffffffffffffffffffffffffffffffff1602179055506040820151816001015560608201518160020160006101000a81548160ff0219169083151502179055509050507fcc6fcf24fd31352c6056453b03173ec6c435f05fa207accab816d593d318a2ed8133604051610a33929190611a89565b60405180910390a150565b6003602052816000526040600020818051602081018201805184825260208301602085012081835280955050505050506000915091509054906101000a900460ff1681565b60046020528060005260406000206000915090508060000160009054906101000a900460ff16908060000160019054906101000a900473ffffffffffffffffffffffffffffffffffffffff16908060010154905083565b60056020528160005260406000206020528060005260406000206000915091509054906101000a900460ff1681565b600160003373ffffffffffffffffffffffffffffffffffffffff1673ffffffffffffffffffffffffffffffffffffffff16815260200190815260200160002060000160009054906101000a900460ff1615610b99576040517f08c379a0000000000000000000000000000000000000000000000000000000008152600401610b9090611c09565b60405180910390fd5b604051806040016040528060011515815260200182815250600160003373ffffffffffffffffffffffffffffffffffffffff1673ffffffffffffffffffffffffffffffffffffffff16815260200190815260200160002060008201518160000160006101000a81548160ff0219169083151502179055506020820151816001019080519060200190610c2c9291906113ea565b509050507f0b34a266c110d2a9da6960d9cc9be6a0f8bcf586fae9f4d3d392d5433f730a8833604051610c5f9190611a6e565b60405180910390a150565b6000806000600560008573ffffffffffffffffffffffffffffffffffffffff1673ffffffffffffffffffffffffffffffffffffffff16815260200190815260200160002060003373ffffffffffffffffffffffffffffffffffffffff1673ffffffffffffffffffffffffffffffffffffffff16815260200190815260200160002060009054906101000a900460ff16610d38576040517f08c379a0000000000000000000000000000000000000000000000000000000008152600401610d2f90611ca9565b60405180910390fd5b6000600460008673ffffffffffffffffffffffffffffffffffffffff1673ffffffffffffffffffffffffffffffffffffffff1681526020019081526020016000206040518060600160405290816000820160009054906101000a900460ff161515151581526020016000820160019054906101000a900473ffffffffffffffffffffffffffffffffffffffff1673ffffffffffffffffffffffffffffffffffffffff1673ffffffffffffffffffffffffffffffffffffffff1681526020016001820154815250509050806000015181602001518260400151935093509350509193909250565b60008054906101000a900473ffffffffffffffffffffffffffffffffffffffff1681565b60026020528060005260406000206000915090508060000160009054906101000a900460ff16908060000160019054906101000a900473ffffffffffffffffffffffffffffffffffffffff16908060010154908060020160009054906101000a900460ff16905084565b600160003373ffffffffffffffffffffffffffffffffffffffff1673ffffffffffffffffffffffffffffffffffffffff16815260200190815260200160002060000160009054906101000a900460ff16610f3b576040517f08c379a0000000000000000000000000000000000000000000000000000000008152600401610f3290611d09565b60405180910390fd5b600460008273ffffffffffffffffffffffffffffffffffffffff1673ffffffffffffffffffffffffffffffffffffffff16815260200190815260200160002060000160009054906101000a900460ff16610fca576040517f08c379a0000000000000000000000000000000000000000000000000000000008152600401610fc190611d29565b60405180910390fd5b6000600460008373ffffffffffffffffffffffffffffffffffffffff1673ffffffffffffffffffffffffffffffffffffffff16815260200190815260200160002060000160006101000a81548160ff0219169083151502179055507fdf554c84fe592310d6b26c8085c7cac114886064ead27ca9178bdd642e8d9f0a816040516110549190611a6e565b60405180910390a150565b600160003373ffffffffffffffffffffffffffffffffffffffff1673ffffffffffffffffffffffffffffffffffffffff16815260200190815260200160002060000160009054906101000a900460ff166110ee576040517f08c379a00000000000000000000000000000000000000000000000000000000081526004016110e590611c69565b60405180910390fd5b600260008473ffffffffffffffffffffffffffffffffffffffff1673ffffffffffffffffffffffffffffffffffffffff16815260200190815260200160002060000160009054906101000a900460ff1661117d576040517f08c379a000000000000000000000000000000000000000000000000000000000815260040161117490611be9565b60405180910390fd5b600360008473ffffffffffffffffffffffffffffffffffffffff1673ffffffffffffffffffffffffffffffffffffffff168152602001908152602001600020826040516111ca9190611a57565b908152602001604051809103902060009054906101000a900460ff1615611226576040517f08c379a000000000000000000000000000000000000000000000000000000000815260040161121d90611c89565b60405180910390fd5b6001600360008573ffffffffffffffffffffffffffffffffffffffff1673ffffffffffffffffffffffffffffffffffffffff168152602001908152602001600020836040516112759190611a57565b908152602001604051809103902060006101000a81548160ff02191690831515021790555080600260008573ffffffffffffffffffffffffffffffffffffffff1673ffffffffffffffffffffffffffffffffffffffff16815260200190815260200160002060010160008282546112ec9190611dd1565b925050819055507f65b465c93ab6bfd4e474b6976c2f94ebd74186f4c85b89885721dea8e832b47c8383604051611324929190611ab2565b60405180910390a1505050565b60016020528060005260406000206000915090508060000160009054906101000a900460ff169080600101805461136790611eb1565b80601f016020809104026020016040519081016040528092919081815260200182805461139390611eb1565b80156113e05780601f106113b5576101008083540402835291602001916113e0565b820191906000526020600020905b8154815290600101906020018083116113c357829003601f168201915b5050505050905082565b8280546113f690611eb1565b90600052602060002090601f016020900481019282611418576000855561145f565b82601f1061143157805160ff191683800117855561145f565b8280016001018555821561145f579182015b8281111561145e578251825591602001919060010190611443565b5b50905061146c9190611470565b5090565b5b80821115611489576000816000905550600101611471565b5090565b60006114a061149b84611d7a565b611d49565b9050828152602081018484840111156114b857600080fd5b6114c3848285611e6f565b509392505050565b6000813590506114da81611f81565b92915050565b600082601f8301126114f157600080fd5b813561150184826020860161148d565b91505092915050565b60008135905061151981611f98565b92915050565b60006020828403121561153157600080fd5b600061153f848285016114cb565b91505092915050565b6000806040838503121561155b57600080fd5b6000611569858286016114cb565b925050602061157a858286016114cb565b9150509250929050565b6000806040838503121561159757600080fd5b60006115a5858286016114cb565b925050602083013567ffffffffffffffff8111156115c257600080fd5b6115ce858286016114e0565b9150509250929050565b6000806000606084860312156115ed57600080fd5b60006115fb868287016114cb565b935050602084013567ffffffffffffffff81111561161857600080fd5b611624868287016114e0565b92505060406116358682870161150a565b9150509250925092565b60006020828403121561165157600080fd5b600082013567ffffffffffffffff81111561166b57600080fd5b611677848285016114e0565b91505092915050565b61168981611e27565b82525050565b61169881611e39565b82525050565b60006116a982611daa565b6116b38185611db5565b93506116c3818560208601611e7e565b6116cc81611f70565b840191505092915050565b60006116e282611daa565b6116ec8185611dc6565b93506116fc818560208601611e7e565b80840191505092915050565b6000611715601283611db5565b91507f4e6f7420656e6f756768206372656469747300000000000000000000000000006000830152602082019050919050565b6000611755601983611db5565b91507f4f6e6c7920756e69766572736974792063616e206973737565000000000000006000830152602082019050919050565b6000611795601483611db5565b91507f53747564656e74206e6f7420656e726f6c6c65640000000000000000000000006000830152602082019050919050565b60006117d5601283611db5565b91507f416c7265616479207265676973746572656400000000000000000000000000006000830152602082019050919050565b6000611815601383611db5565b91507f416c726561647920686173206469706c6f6d61000000000000000000000000006000830152602082019050919050565b6000611855601a83611db5565b91507f4f6e6c7920756e69766572736974792063616e20656e726f6c6c0000000000006000830152602082019050919050565b6000611895601d83611db5565b91507f4f6e6c7920756e697665727369747920737461666620616c6c6f7765640000006000830152602082019050919050565b60006118d5601183611db5565b91507f416c7265616479207375626d69747465640000000000000000000000000000006000830152602082019050919050565b6000611915601283611db5565b91507f416363657373206e6f74206772616e74656400000000000000000000000000006000830152602082019050919050565b6000611955601883611db5565b91507f53747564656e7420616c726561647920656e726f6c6c656400000000000000006000830152602082019050919050565b6000611995600a83611db5565b91507f4e6f206469706c6f6d61000000000000000000000000000000000000000000006000830152602082019050919050565b60006119d5601783611db5565b91507f4f6e6c7920756e697665727369747920616c6c6f7765640000000000000000006000830152602082019050919050565b6000611a15600f83611db5565b91507f416c7265616479207265766f6b656400000000000000000000000000000000006000830152602082019050919050565b611a5181611e65565b82525050565b6000611a6382846116d7565b915081905092915050565b6000602082019050611a836000830184611680565b92915050565b6000604082019050611a9e6000830185611680565b611aab6020830184611680565b9392505050565b6000604082019050611ac76000830185611680565b8181036020830152611ad9818461169e565b90509392505050565b6000602082019050611af7600083018461168f565b92915050565b6000606082019050611b12600083018661168f565b611b1f6020830185611680565b611b2c6040830184611a48565b949350505050565b6000608082019050611b49600083018761168f565b611b566020830186611680565b611b636040830185611a48565b611b70606083018461168f565b95945050505050565b6000604082019050611b8e600083018561168f565b8181036020830152611ba0818461169e565b90509392505050565b60006020820190508181036000830152611bc281611708565b9050919050565b60006020820190508181036000830152611be281611748565b9050919050565b60006020820190508181036000830152611c0281611788565b9050919050565b60006020820190508181036000830152611c22816117c8565b9050919050565b60006020820190508181036000830152611c4281611808565b9050919050565b60006020820190508181036000830152611c6281611848565b9050919050565b60006020820190508181036000830152611c8281611888565b9050919050565b60006020820190508181036000830152611ca2816118c8565b9050919050565b60006020820190508181036000830152611cc281611908565b9050919050565b60006020820190508181036000830152611ce281611948565b9050919050565b60006020820190508181036000830152611d0281611988565b9050919050565b60006020820190508181036000830152611d22816119c8565b9050919050565b60006020820190508181036000830152611d4281611a08565b9050919050565b6000604051905081810181811067ffffffffffffffff82111715611d7057611d6f611f41565b5b8060405250919050565b600067ffffffffffffffff821115611d9557611d94611f41565b5b601f19601f8301169050602081019050919050565b600081519050919050565b600082825260208201905092915050565b600081905092915050565b6000611ddc82611e65565b9150611de783611e65565b9250827fffffffffffffffffffffffffffffffffffffffffffffffffffffffffffffffff03821115611e1c57611e1b611ee3565b5b828201905092915050565b6000611e3282611e45565b9050919050565b60008115159050919050565b600073ffffffffffffffffffffffffffffffffffffffff82169050919050565b6000819050919050565b82818337600083830152505050565b60005b83811015611e9c578082015181840152602081019050611e81565b83811115611eab576000848401525b50505050565b60006002820490506001821680611ec957607f821691505b60208210811415611edd57611edc611f12565b5b50919050565b7f4e487b7100000000000000000000000000000000000000000000000000000000600052601160045260246000fd5b7f4e487b7100000000000000000000000000000000000000000000000000000000600052602260045260246000fd5b7f4e487b7100000000000000000000000000000000000000000000000000000000600052604160045260246000fd5b6000601f19601f8301169050919050565b611f8a81611e27565b8114611f9557600080fd5b50565b611fa181611e65565b8114611fac57600080fd5b5056fea26469706673582212206502a5c7a08cfc951c00309bb60fe728426c3f6cf8eda7be9ecfb15753234c4764736f6c63430008000033",
  "immutableReferences": {},
  "source": "pragma solidity ^0.8.0;\r\n\r\ncontract DiplomaVerification {\r\n\r\n    address public owner;\r\n\r\n    constructor() {\r\n        owner = msg.sender;\r\n    }\r\n\r\n    modifier onlyOwner() {\r\n        require(msg.sender == owner, \"Not system owner\");\r\n        _;\r\n    }\r\n\r\n    /*STRUKTROS*/\r\n\r\n    struct University {\r\n        bool isRegistered;\r\n        string name;\r\n    }\r\n\r\n    struct Student {\r\n        bool isEnrolled;\r\n        address university;\r\n        uint totalCredits;\r\n        bool hasDiploma;\r\n    }\r\n\r\n    struct Diploma {\r\n        bool isValid;\r\n        address university;\r\n        uint issueDate;\r\n    }\r\n\r\n    /*SAUGYKLOS */\r\n\r\n    mapping(address => University) public universities;\r\n    mapping(address => Student) public students;\r\n    mapping(address => mapping(string => bool)) public grades; // student => course => passed\r\n    mapping(address => Diploma) public diplomas;\r\n    mapping(address => mapping(address => bool)) public accessPermissions; // student => employer => access\r\n\r\n    /*VYKIAI (EVENTS)*/\r\n\r\n    event UniversityRegistered(address university);\r\n    event StudentEnrolled(address student, address university);\r\n    event GradeSubmitted(address student, string course);\r\n    event DiplomaIssued(address student);\r\n    event DiplomaRevoked(address student);\r\n    event AccessGranted(address student, address employer);\r\n\r\n    /*1. UNIVERSITETO REGISTRACIJA */\r\n\r\n    function registerUniversity(string memory _name) public {\r\n        require(!universities[msg.sender].isRegistered, \"Already registered\");\r\n\r\n        universities[msg.sender] = University({\r\n            isRegistered: true,\r\n            name: _name\r\n        });\r\n\r\n        emit UniversityRegistered(msg.sender);\r\n    }\r\n\r\n    /*2. STUDENTO REGISTRACIJA*/\r\n\r\n    function enrollStudent(address _student) public {\r\n        require(universities[msg.sender].isRegistered, \"Only university can enroll\");\r\n        require(!students[_student].isEnrolled, \"Student already enrolled\");\r\n\r\n        students[_student] = Student({\r\n            isEnrolled: true,\r\n            university: msg.sender,\r\n            totalCredits: 0,\r\n            hasDiploma: false\r\n        });\r\n\r\n        emit StudentEnrolled(_student, msg.sender);\r\n    }\r\n\r\n    /*3. PAYMIO PATEIKIMAS */\r\n\r\n    function submitGrade(address _student, string memory _course, uint _credits) public {\r\n        require(universities[msg.sender].isRegistered, \"Only university staff allowed\");\r\n        require(students[_student].isEnrolled, \"Student not enrolled\");\r\n        require(!grades[_student][_course], \"Already submitted\");\r\n\r\n        grades[_student][_course] = true;\r\n        students[_student].totalCredits += _credits;\r\n\r\n        emit GradeSubmitted(_student, _course);\r\n    }\r\n\r\n    /*4. DIPLOMO IDAVIMAS*/\r\n\r\n    function issueDiploma(address _student) public {\r\n        require(universities[msg.sender].isRegistered, \"Only university can issue\");\r\n        require(students[_student].isEnrolled, \"Student not enrolled\");\r\n        require(students[_student].totalCredits >= 180, \"Not enough credits\");\r\n        require(!students[_student].hasDiploma, \"Already has diploma\");\r\n\r\n        students[_student].hasDiploma = true;\r\n\r\n        diplomas[_student] = Diploma({\r\n            isValid: true,\r\n            university: msg.sender,\r\n            issueDate: block.timestamp\r\n        });\r\n\r\n        emit DiplomaIssued(_student);\r\n    }\r\n\r\n    /* 5. PRIEIGOS SUTEIKIMAS DARBDAVIUI*/\r\n\r\n    function grantAccess(address _employer) public {\r\n        require(students[msg.sender].hasDiploma, \"No diploma\");\r\n        accessPermissions[msg.sender][_employer] = true;\r\n\r\n        emit AccessGranted(msg.sender, _employer);\r\n    }\r\n\r\n    /* 6. DIPLOMO PATIKRA */\r\n\r\n    function verifyDiploma(address _student) public view returns (\r\n        bool valid,\r\n        address university,\r\n        uint issueDate\r\n    ) {\r\n        require(accessPermissions[_student][msg.sender], \"Access not granted\");\r\n\r\n        Diploma memory d = diplomas[_student];\r\n\r\n        return (d.isValid, d.university, d.issueDate);\r\n    }\r\n\r\n    /*7. DIPLOMO ATAUKIMAS */\r\n\r\n    function revokeDiploma(address _student) public {\r\n        require(universities[msg.sender].isRegistered, \"Only university allowed\");\r\n        require(diplomas[_student].isValid, \"Already revoked\");\r\n\r\n        diplomas[_student].isValid = false;\r\n\r\n        emit DiplomaRevoked(_student);\r\n    }\r\n\r\n}\r\n",
  "sourcePath": "C:\\Users\\vejas\\OneDrive\\Desktop\\uni\\Blockchains\\smart\\contracts\\DiplomaVerification.sol",
  "compiler": {
    "name": "solc",
    "version": "0.8.0+commit.c7dfd78e.Emscripten.clang"
  },
  "schemaVersion": "3.4.16",
  "updatedAt": "2025-12-07T20:52:05.628Z",
  "networkType": "ethereum",
  "devdoc": {
    "kind": "dev",
    "methods": {},
    "version": 1
  },
  "userdoc": {
    "kind": "user",
    "methods": {},
    "version": 1
  }
}