{
  "contractName": "DiplomaVerification",
  "abi": [
    {
      "inputs": [],
      "stateMutability": "nonpayable",
      "type": "constructor"
    },
    {
      "anonymous": false,
      "inputs": [
        {
          "indexed": false,
          "internalType": "address",
          "name": "student",
          "type": "address"
        },
        {
          "indexed": false,
          "internalType": "address",
          "name": "employer",
          "type": "address"
        }
      ],
      "name": "AccessGranted",
      "type": "event"
    },
    {
      "anonymous": false,
      "inputs": [
        {
          "indexed": false,
          "internalType": "address",
          "name": "student",
          "type": "address"
        }
      ],
      "name": "DiplomaIssued",
      "type": "event"
    },
    {
      "anonymous": false,
      "inputs": [
        {
          "indexed": false,
          "internalType": "address",
          "name": "student",
          "type": "address"
        }
      ],
      "name": "DiplomaRevoked",
      "type": "event"
    },
    {
      "anonymous": false,
      "inputs": [
        {
          "indexed": false,
          "internalType": "address",
          "name": "student",
          "type": "address"
        },
        {
          "indexed": false,
          "internalType": "bytes32",
          "name": "courseHash",
          "type": "bytes32"
        },
        {
          "indexed": false,
          "internalType": "uint256",
          "name": "credits",
          "type": "uint256"
        }
      ],
      "name": "GradeSubmitted",
      "type": "event"
    },
    {
      "anonymous": false,
      "inputs": [
        {
          "indexed": false,
          "internalType": "address",
          "name": "lecturer",
          "type": "address"
        },
        {
          "indexed": false,
          "internalType": "address",
          "name": "university",
          "type": "address"
        }
      ],
      "name": "LecturerAdded",
      "type": "event"
    },
    {
      "anonymous": false,
      "inputs": [
        {
          "indexed": false,
          "internalType": "address",
          "name": "student",
          "type": "address"
        },
        {
          "indexed": false,
          "internalType": "address",
          "name": "university",
          "type": "address"
        }
      ],
      "name": "StudentEnrolled",
      "type": "event"
    },
    {
      "anonymous": false,
      "inputs": [
        {
          "indexed": false,
          "internalType": "address",
          "name": "university",
          "type": "address"
        },
        {
          "indexed": false,
          "internalType": "string",
          "name": "name",
          "type": "string"
        }
      ],
      "name": "UniversityRegistered",
      "type": "event"
    },
    {
      "inputs": [
        {
          "internalType": "address",
          "name": "",
          "type": "address"
        },
        {
          "internalType": "address",
          "name": "",
          "type": "address"
        }
      ],
      "name": "accessPermissions",
      "outputs": [
        {
          "internalType": "bool",
          "name": "",
          "type": "bool"
        }
      ],
      "stateMutability": "view",
      "type": "function",
      "constant": true
    },
    {
      "inputs": [
        {
          "internalType": "address",
          "name": "",
          "type": "address"
        },
        {
          "internalType": "bytes32",
          "name": "",
          "type": "bytes32"
        }
      ],
      "name": "courseCredits",
      "outputs": [
        {
          "internalType": "uint256",
          "name": "",
          "type": "uint256"
        }
      ],
      "stateMutability": "view",
      "type": "function",
      "constant": true
    },
    {
      "inputs": [
        {
          "internalType": "address",
          "name": "",
          "type": "address"
        }
      ],
      "name": "diplomas",
      "outputs": [
        {
          "internalType": "bool",
          "name": "isValid",
          "type": "bool"
        },
        {
          "internalType": "address",
          "name": "university",
          "type": "address"
        },
        {
          "internalType": "uint256",
          "name": "issueDate",
          "type": "uint256"
        },
        {
          "internalType": "bytes32",
          "name": "diplomaHash",
          "type": "bytes32"
        }
      ],
      "stateMutability": "view",
      "type": "function",
      "constant": true
    },
    {
      "inputs": [
        {
          "internalType": "address",
          "name": "",
          "type": "address"
        }
      ],
      "name": "lecturers",
      "outputs": [
        {
          "internalType": "bool",
          "name": "isActive",
          "type": "bool"
        },
        {
          "internalType": "address",
          "name": "university",
          "type": "address"
        }
      ],
      "stateMutability": "view",
      "type": "function",
      "constant": true
    },
    {
      "inputs": [],
      "name": "owner",
      "outputs": [
        {
          "internalType": "address",
          "name": "",
          "type": "address"
        }
      ],
      "stateMutability": "view",
      "type": "function",
      "constant": true
    },
    {
      "inputs": [
        {
          "internalType": "address",
          "name": "",
          "type": "address"
        }
      ],
      "name": "students",
      "outputs": [
        {
          "internalType": "bool",
          "name": "isEnrolled",
          "type": "bool"
        },
        {
          "internalType": "address",
          "name": "university",
          "type": "address"
        },
        {
          "internalType": "uint256",
          "name": "totalCredits",
          "type": "uint256"
        },
        {
          "internalType": "bool",
          "name": "hasDiploma",
          "type": "bool"
        }
      ],
      "stateMutability": "view",
      "type": "function",
      "constant": true
    },
    {
      "inputs": [
        {
          "internalType": "address",
          "name": "",
          "type": "address"
        }
      ],
      "name": "universities",
      "outputs": [
        {
          "internalType": "bool",
          "name": "isRegistered",
          "type": "bool"
        },
        {
          "internalType": "string",
          "name": "name",
          "type": "string"
        }
      ],
      "stateMutability": "view",
      "type": "function",
      "constant": true
    },
    {
      "inputs": [
        {
          "internalType": "address",
          "name": "_university",
          "type": "address"
        },
        {
          "internalType": "string",
          "name": "_name",
          "type": "string"
        }
      ],
      "name": "registerUniversity",
      "outputs": [],
      "stateMutability": "nonpayable",
      "type": "function"
    },
    {
      "inputs": [
        {
          "internalType": "address",
          "name": "_lecturer",
          "type": "address"
        }
      ],
      "name": "addLecturer",
      "outputs": [],
      "stateMutability": "nonpayable",
      "type": "function"
    },
    {
      "inputs": [
        {
          "internalType": "address",
          "name": "_student",
          "type": "address"
        }
      ],
      "name": "enrollStudent",
      "outputs": [],
      "stateMutability": "nonpayable",
      "type": "function"
    },
    {
      "inputs": [
        {
          "internalType": "address",
          "name": "_student",
          "type": "address"
        },
        {
          "internalType": "bytes32",
          "name": "_courseHash",
          "type": "bytes32"
        },
        {
          "internalType": "uint256",
          "name": "_credits",
          "type": "uint256"
        }
      ],
      "name": "submitGrade",
      "outputs": [],
      "stateMutability": "nonpayable",
      "type": "function"
    },
    {
      "inputs": [
        {
          "internalType": "address",
          "name": "_student",
          "type": "address"
        },
        {
          "internalType": "bytes32",
          "name": "_diplomaHash",
          "type": "bytes32"
        }
      ],
      "name": "issueDiploma",
      "outputs": [],
      "stateMutability": "nonpayable",
      "type": "function"
    },
    {
      "inputs": [
        {
          "internalType": "address",
          "name": "_employer",
          "type": "address"
        }
      ],
      "name": "grantAccess",
      "outputs": [],
      "stateMutability": "nonpayable",
      "type": "function"
    },
    {
      "inputs": [
        {
          "internalType": "address",
          "name": "_student",
          "type": "address"
        }
      ],
      "name": "verifyDiploma",
      "outputs": [
        {
          "internalType": "bool",
          "name": "valid",
          "type": "bool"
        },
        {
          "internalType": "address",
          "name": "university",
          "type": "address"
        },
        {
          "internalType": "uint256",
          "name": "issueDate",
          "type": "uint256"
        },
        {
          "internalType": "bytes32",
          "name": "diplomaHash",
          "type": "bytes32"
        }
      ],
      "stateMutability": "view",
      "type": "function",
      "constant": true
    },
    {
      "inputs": [
        {
          "internalType": "address",
          "name": "_student",
          "type": "address"
        }
      ],
      "name": "revokeDiploma",
      "outputs": [],
      "stateMutability": "nonpayable",
      "type": "function"
    }
  ],
  "bytecode": "0x608060405234801561001057600080fd5b50336000806101000a81548173ffffffffffffffffffffffffffffffffffffffff021916908373ffffffffffffffffffffffffffffffffffffffff16021790555061240d806100606000396000f3fe608060405234801561001057600080fd5b50600436106100f55760003560e01c8063a19b918811610097578063b509954111610066578063b50995411461029d578063bb384a9b146102b9578063f0995560146102d5578063fc92506014610306576100f5565b8063a19b918814610202578063a6c807a914610232578063ace3d59514610265578063b13ecb7314610281576100f5565b806352d4891d116100d357806352d4891d1461016557806364b3b5251461018157806376bfbef9146101b15780638da5cb5b146101e4576100f5565b80630ae5e739146100fa5780632a207eae14610116578063529f615f14610132575b600080fd5b610114600480360381019061010f91906118fe565b610337565b005b610130600480360381019061012b91906118fe565b610497565b005b61014c600480360381019061014791906118fe565b610703565b60405161015c9493929190611f2b565b60405180910390f35b61017f600480360381019061017a919061199f565b610760565b005b61019b60048036038101906101969190611927565b610ab9565b6040516101a89190611ea2565b60405180910390f35b6101cb60048036038101906101c691906118fe565b610ae8565b6040516101db9493929190611f2b565b60405180910390f35b6101ec610cae565b6040516101f99190611df7565b60405180910390f35b61021c60048036038101906102179190611963565b610cd2565b6040516102299190612140565b60405180910390f35b61024c600480360381019061024791906118fe565b610cf7565b60405161025c9493929190611ee6565b60405180910390f35b61027f600480360381019061027a91906119ee565b610d61565b005b61029b600480360381019061029691906118fe565b610f53565b005b6102b760048036038101906102b291906118fe565b6110f5565b005b6102d360048036038101906102ce9190611963565b6112a8565b005b6102ef60048036038101906102ea91906118fe565b6116aa565b6040516102fd929190611f70565b60405180910390f35b610320600480360381019061031b91906118fe565b611763565b60405161032e929190611ebd565b60405180910390f35b600360003373ffffffffffffffffffffffffffffffffffffffff1673ffffffffffffffffffffffffffffffffffffffff16815260200190815260200160002060020160009054906101000a900460ff166103c6576040517f08c379a00000000000000000000000000000000000000000000000000000000081526004016103bd906120c0565b60405180910390fd5b6001600660003373ffffffffffffffffffffffffffffffffffffffff1673ffffffffffffffffffffffffffffffffffffffff16815260200190815260200160002060008373ffffffffffffffffffffffffffffffffffffffff1673ffffffffffffffffffffffffffffffffffffffff16815260200190815260200160002060006101000a81548160ff0219169083151502179055507f9f520b3bfc56d06f7065d10b4683b3f57ac8895d5026cd176dee95ce1454cb8d338260405161048c929190611e12565b60405180910390a150565b600160003373ffffffffffffffffffffffffffffffffffffffff1673ffffffffffffffffffffffffffffffffffffffff16815260200190815260200160002060000160009054906101000a900460ff16610526576040517f08c379a000000000000000000000000000000000000000000000000000000000815260040161051d906120e0565b60405180910390fd5b600360008273ffffffffffffffffffffffffffffffffffffffff1673ffffffffffffffffffffffffffffffffffffffff16815260200190815260200160002060000160009054906101000a900460ff16156105b6576040517f08c379a00000000000000000000000000000000000000000000000000000000081526004016105ad90611fe0565b60405180910390fd5b60405180608001604052806001151581526020013373ffffffffffffffffffffffffffffffffffffffff1681526020016000815260200160001515815250600360008373ffffffffffffffffffffffffffffffffffffffff1673ffffffffffffffffffffffffffffffffffffffff16815260200190815260200160002060008201518160000160006101000a81548160ff02191690831515021790555060208201518160000160016101000a81548173ffffffffffffffffffffffffffffffffffffffff021916908373ffffffffffffffffffffffffffffffffffffffff1602179055506040820151816001015560608201518160020160006101000a81548160ff0219169083151502179055509050507fcc6fcf24fd31352c6056453b03173ec6c435f05fa207accab816d593d318a2ed81336040516106f8929190611e12565b60405180910390a150565b60056020528060005260406000206000915090508060000160009054906101000a900460ff16908060000160019054906101000a900473ffffffffffffffffffffffffffffffffffffffff16908060010154908060020154905084565b6000600260003373ffffffffffffffffffffffffffffffffffffffff1673ffffffffffffffffffffffffffffffffffffffff1681526020019081526020016000206040518060400160405290816000820160009054906101000a900460ff161515151581526020016000820160019054906101000a900473ffffffffffffffffffffffffffffffffffffffff1673ffffffffffffffffffffffffffffffffffffffff1673ffffffffffffffffffffffffffffffffffffffff168152505090508060000151610863576040517f08c379a000000000000000000000000000000000000000000000000000000000815260040161085a90611fa0565b60405180910390fd5b600360008573ffffffffffffffffffffffffffffffffffffffff1673ffffffffffffffffffffffffffffffffffffffff16815260200190815260200160002060000160019054906101000a900473ffffffffffffffffffffffffffffffffffffffff1673ffffffffffffffffffffffffffffffffffffffff16816020015173ffffffffffffffffffffffffffffffffffffffff1614610937576040517f08c379a000000000000000000000000000000000000000000000000000000000815260040161092e90612020565b60405180910390fd5b6000600460008673ffffffffffffffffffffffffffffffffffffffff1673ffffffffffffffffffffffffffffffffffffffff168152602001908152602001600020600085815260200190815260200160002054146109ca576040517f08c379a00000000000000000000000000000000000000000000000000000000081526004016109c190612040565b60405180910390fd5b81600460008673ffffffffffffffffffffffffffffffffffffffff1673ffffffffffffffffffffffffffffffffffffffff16815260200190815260200160002060008581526020019081526020016000208190555081600360008673ffffffffffffffffffffffffffffffffffffffff1673ffffffffffffffffffffffffffffffffffffffff1681526020019081526020016000206001016000828254610a7191906121d8565b925050819055507f47721ab35e5996087d1d43561e8c55e99f219ae4d03677dd02880c80a479a33d848484604051610aab93929190611e3b565b60405180910390a150505050565b60066020528160005260406000206020528060005260406000206000915091509054906101000a900460ff1681565b600080600080600660008673ffffffffffffffffffffffffffffffffffffffff1673ffffffffffffffffffffffffffffffffffffffff16815260200190815260200160002060003373ffffffffffffffffffffffffffffffffffffffff1673ffffffffffffffffffffffffffffffffffffffff16815260200190815260200160002060009054906101000a900460ff16610bb7576040517f08c379a0000000000000000000000000000000000000000000000000000000008152600401610bae90612100565b60405180910390fd5b6000600560008773ffffffffffffffffffffffffffffffffffffffff1673ffffffffffffffffffffffffffffffffffffffff1681526020019081526020016000206040518060800160405290816000820160009054906101000a900460ff161515151581526020016000820160019054906101000a900473ffffffffffffffffffffffffffffffffffffffff1673ffffffffffffffffffffffffffffffffffffffff1673ffffffffffffffffffffffffffffffffffffffff16815260200160018201548152602001600282015481525050905080600001518160200151826040015183606001519450945094509450509193509193565b60008054906101000a900473ffffffffffffffffffffffffffffffffffffffff1681565b6004602052816000526040600020602052806000526040600020600091509150505481565b60036020528060005260406000206000915090508060000160009054906101000a900460ff16908060000160019054906101000a900473ffffffffffffffffffffffffffffffffffffffff16908060010154908060020160009054906101000a900460ff16905084565b60008054906101000a900473ffffffffffffffffffffffffffffffffffffffff1673ffffffffffffffffffffffffffffffffffffffff163373ffffffffffffffffffffffffffffffffffffffff1614610def576040517f08c379a0000000000000000000000000000000000000000000000000000000008152600401610de6906120a0565b60405180910390fd5b600160008373ffffffffffffffffffffffffffffffffffffffff1673ffffffffffffffffffffffffffffffffffffffff16815260200190815260200160002060000160009054906101000a900460ff1615610e7f576040517f08c379a0000000000000000000000000000000000000000000000000000000008152600401610e7690612000565b60405180910390fd5b604051806040016040528060011515815260200182815250600160008473ffffffffffffffffffffffffffffffffffffffff1673ffffffffffffffffffffffffffffffffffffffff16815260200190815260200160002060008201518160000160006101000a81548160ff0219169083151502179055506020820151816001019080519060200190610f129291906117b4565b509050507f9e7aff20b8d74f44a6eab16e94b9ff91d18db8a3797b539571a31d90dc530d238282604051610f47929190611e72565b60405180910390a15050565b600160003373ffffffffffffffffffffffffffffffffffffffff1673ffffffffffffffffffffffffffffffffffffffff16815260200190815260200160002060000160009054906101000a900460ff16610fe2576040517f08c379a0000000000000000000000000000000000000000000000000000000008152600401610fd9906120e0565b60405180910390fd5b60405180604001604052806001151581526020013373ffffffffffffffffffffffffffffffffffffffff16815250600260008373ffffffffffffffffffffffffffffffffffffffff1673ffffffffffffffffffffffffffffffffffffffff16815260200190815260200160002060008201518160000160006101000a81548160ff02191690831515021790555060208201518160000160016101000a81548173ffffffffffffffffffffffffffffffffffffffff021916908373ffffffffffffffffffffffffffffffffffffffff1602179055509050507f88a48bc1a01a3b3c3b89b4fa12ca1e2fb50f3780f69d219fcbfe6c22b7c7751481336040516110ea929190611e12565b60405180910390a150565b600160003373ffffffffffffffffffffffffffffffffffffffff1673ffffffffffffffffffffffffffffffffffffffff16815260200190815260200160002060000160009054906101000a900460ff16611184576040517f08c379a000000000000000000000000000000000000000000000000000000000815260040161117b90612080565b60405180910390fd5b600560008273ffffffffffffffffffffffffffffffffffffffff1673ffffffffffffffffffffffffffffffffffffffff16815260200190815260200160002060000160009054906101000a900460ff16611213576040517f08c379a000000000000000000000000000000000000000000000000000000000815260040161120a90612120565b60405180910390fd5b6000600560008373ffffffffffffffffffffffffffffffffffffffff1673ffffffffffffffffffffffffffffffffffffffff16815260200190815260200160002060000160006101000a81548160ff0219169083151502179055507fdf554c84fe592310d6b26c8085c7cac114886064ead27ca9178bdd642e8d9f0a8160405161129d9190611df7565b60405180910390a150565b600160003373ffffffffffffffffffffffffffffffffffffffff1673ffffffffffffffffffffffffffffffffffffffff16815260200190815260200160002060000160009054906101000a900460ff16611337576040517f08c379a000000000000000000000000000000000000000000000000000000000815260040161132e90612080565b60405180910390fd5b3373ffffffffffffffffffffffffffffffffffffffff16600360008473ffffffffffffffffffffffffffffffffffffffff1673ffffffffffffffffffffffffffffffffffffffff16815260200190815260200160002060000160019054906101000a900473ffffffffffffffffffffffffffffffffffffffff1673ffffffffffffffffffffffffffffffffffffffff1614611407576040517f08c379a00000000000000000000000000000000000000000000000000000000081526004016113fe90612020565b60405180910390fd5b60b4600360008473ffffffffffffffffffffffffffffffffffffffff1673ffffffffffffffffffffffffffffffffffffffff16815260200190815260200160002060010154101561148d576040517f08c379a000000000000000000000000000000000000000000000000000000000815260040161148490611fc0565b60405180910390fd5b600360008373ffffffffffffffffffffffffffffffffffffffff1673ffffffffffffffffffffffffffffffffffffffff16815260200190815260200160002060020160009054906101000a900460ff161561151d576040517f08c379a000000000000000000000000000000000000000000000000000000000815260040161151490612060565b60405180910390fd5b6001600360008473ffffffffffffffffffffffffffffffffffffffff1673ffffffffffffffffffffffffffffffffffffffff16815260200190815260200160002060020160006101000a81548160ff02191690831515021790555060405180608001604052806001151581526020013373ffffffffffffffffffffffffffffffffffffffff16815260200142815260200182815250600560008473ffffffffffffffffffffffffffffffffffffffff1673ffffffffffffffffffffffffffffffffffffffff16815260200190815260200160002060008201518160000160006101000a81548160ff02191690831515021790555060208201518160000160016101000a81548173ffffffffffffffffffffffffffffffffffffffff021916908373ffffffffffffffffffffffffffffffffffffffff16021790555060408201518160010155606082015181600201559050507f2ed866a1d31aa00e3f4a8ba7850bcbab8c260255b88f06c7b904e1fb4afc46bc8260405161169e9190611df7565b60405180910390a15050565b60016020528060005260406000206000915090508060000160009054906101000a900460ff16908060010180546116e0906122c2565b80601f016020809104026020016040519081016040528092919081815260200182805461170c906122c2565b80156117595780601f1061172e57610100808354040283529160200191611759565b820191906000526020600020905b81548152906001019060200180831161173c57829003601f168201915b5050505050905082565b60026020528060005260406000206000915090508060000160009054906101000a900460ff16908060000160019054906101000a900473ffffffffffffffffffffffffffffffffffffffff16905082565b8280546117c0906122c2565b90600052602060002090601f0160209004810192826117e25760008555611829565b82601f106117fb57805160ff1916838001178555611829565b82800160010185558215611829579182015b8281111561182857825182559160200191906001019061180d565b5b509050611836919061183a565b5090565b5b8082111561185357600081600090555060010161183b565b5090565b600061186a6118658461218c565b61215b565b90508281526020810184848401111561188257600080fd5b61188d848285612280565b509392505050565b6000813590506118a481612392565b92915050565b6000813590506118b9816123a9565b92915050565b600082601f8301126118d057600080fd5b81356118e0848260208601611857565b91505092915050565b6000813590506118f8816123c0565b92915050565b60006020828403121561191057600080fd5b600061191e84828501611895565b91505092915050565b6000806040838503121561193a57600080fd5b600061194885828601611895565b925050602061195985828601611895565b9150509250929050565b6000806040838503121561197657600080fd5b600061198485828601611895565b9250506020611995858286016118aa565b9150509250929050565b6000806000606084860312156119b457600080fd5b60006119c286828701611895565b93505060206119d3868287016118aa565b92505060406119e4868287016118e9565b9150509250925092565b60008060408385031215611a0157600080fd5b6000611a0f85828601611895565b925050602083013567ffffffffffffffff811115611a2c57600080fd5b611a38858286016118bf565b9150509250929050565b611a4b8161222e565b82525050565b611a5a81612240565b82525050565b611a698161224c565b82525050565b6000611a7a826121bc565b611a8481856121c7565b9350611a9481856020860161228f565b611a9d81612381565b840191505092915050565b6000611ab5600c836121c7565b91507f4e6f74206c6563747572657200000000000000000000000000000000000000006000830152602082019050919050565b6000611af56012836121c7565b91507f4e6f7420656e6f756768206372656469747300000000000000000000000000006000830152602082019050919050565b6000611b356010836121c7565b91507f416c726561647920656e726f6c6c6564000000000000000000000000000000006000830152602082019050919050565b6000611b756012836121c7565b91507f416c7265616479207265676973746572656400000000000000000000000000006000830152602082019050919050565b6000611bb56010836121c7565b91507f57726f6e6720756e6976657273697479000000000000000000000000000000006000830152602082019050919050565b6000611bf56011836121c7565b91507f416c7265616479207375626d69747465640000000000000000000000000000006000830152602082019050919050565b6000611c35600e836121c7565b91507f416c7265616479206973737565640000000000000000000000000000000000006000830152602082019050919050565b6000611c75600f836121c7565b91507f4f6e6c7920756e697665727369747900000000000000000000000000000000006000830152602082019050919050565b6000611cb56010836121c7565b91507f4e6f742073797374656d206f776e6572000000000000000000000000000000006000830152602082019050919050565b6000611cf5600a836121c7565b91507f4e6f206469706c6f6d61000000000000000000000000000000000000000000006000830152602082019050919050565b6000611d356017836121c7565b91507f4f6e6c7920756e697665727369747920616c6c6f7765640000000000000000006000830152602082019050919050565b6000611d75600d836121c7565b91507f4163636573732064656e696564000000000000000000000000000000000000006000830152602082019050919050565b6000611db5600f836121c7565b91507f416c7265616479207265766f6b656400000000000000000000000000000000006000830152602082019050919050565b611df181612276565b82525050565b6000602082019050611e0c6000830184611a42565b92915050565b6000604082019050611e276000830185611a42565b611e346020830184611a42565b9392505050565b6000606082019050611e506000830186611a42565b611e5d6020830185611a60565b611e6a6040830184611de8565b949350505050565b6000604082019050611e876000830185611a42565b8181036020830152611e998184611a6f565b90509392505050565b6000602082019050611eb76000830184611a51565b92915050565b6000604082019050611ed26000830185611a51565b611edf6020830184611a42565b9392505050565b6000608082019050611efb6000830187611a51565b611f086020830186611a42565b611f156040830185611de8565b611f226060830184611a51565b95945050505050565b6000608082019050611f406000830187611a51565b611f4d6020830186611a42565b611f5a6040830185611de8565b611f676060830184611a60565b95945050505050565b6000604082019050611f856000830185611a51565b8181036020830152611f978184611a6f565b90509392505050565b60006020820190508181036000830152611fb981611aa8565b9050919050565b60006020820190508181036000830152611fd981611ae8565b9050919050565b60006020820190508181036000830152611ff981611b28565b9050919050565b6000602082019050818103600083015261201981611b68565b9050919050565b6000602082019050818103600083015261203981611ba8565b9050919050565b6000602082019050818103600083015261205981611be8565b9050919050565b6000602082019050818103600083015261207981611c28565b9050919050565b6000602082019050818103600083015261209981611c68565b9050919050565b600060208201905081810360008301526120b981611ca8565b9050919050565b600060208201905081810360008301526120d981611ce8565b9050919050565b600060208201905081810360008301526120f981611d28565b9050919050565b6000602082019050818103600083015261211981611d68565b9050919050565b6000602082019050818103600083015261213981611da8565b9050919050565b60006020820190506121556000830184611de8565b92915050565b6000604051905081810181811067ffffffffffffffff8211171561218257612181612352565b5b8060405250919050565b600067ffffffffffffffff8211156121a7576121a6612352565b5b601f19601f8301169050602081019050919050565b600081519050919050565b600082825260208201905092915050565b60006121e382612276565b91506121ee83612276565b9250827fffffffffffffffffffffffffffffffffffffffffffffffffffffffffffffffff03821115612223576122226122f4565b5b828201905092915050565b600061223982612256565b9050919050565b60008115159050919050565b6000819050919050565b600073ffffffffffffffffffffffffffffffffffffffff82169050919050565b6000819050919050565b82818337600083830152505050565b60005b838110156122ad578082015181840152602081019050612292565b838111156122bc576000848401525b50505050565b600060028204905060018216806122da57607f821691505b602082108114156122ee576122ed612323565b5b50919050565b7f4e487b7100000000000000000000000000000000000000000000000000000000600052601160045260246000fd5b7f4e487b7100000000000000000000000000000000000000000000000000000000600052602260045260246000fd5b7f4e487b7100000000000000000000000000000000000000000000000000000000600052604160045260246000fd5b6000601f19601f8301169050919050565b61239b8161222e565b81146123a657600080fd5b50565b6123b28161224c565b81146123bd57600080fd5b50565b6123c981612276565b81146123d457600080fd5b5056fea264697066735822122010f0cd4297b4ae857d5ae87dc7a18608b90ae2c9f40b0e524e45e55b87d13bf964736f6c63430008000033",
  "immutableReferences": {},
  "source": "// SPDX-License-Identifier: MIT\r\npragma solidity ^0.8.0;\r\n\r\ncontract DiplomaVerification {\r\n\r\n    /* ================== SISTEMOS ADMINISTRATORIUS ================== */\r\n\r\n    address public owner;\r\n\r\n    modifier onlyOwner() {\r\n        require(msg.sender == owner, \"Not system owner\");\r\n        _;\r\n    }\r\n\r\n    constructor() {\r\n        owner = msg.sender;\r\n    }\r\n\r\n    /* ================== STRUKTUROS ================== */\r\n\r\n    struct University {\r\n        bool isRegistered;\r\n        string name;\r\n    }\r\n\r\n    struct Lecturer {\r\n        bool isActive;\r\n        address university;\r\n    }\r\n\r\n    struct Student {\r\n        bool isEnrolled;\r\n        address university;\r\n        uint256 totalCredits;\r\n        bool hasDiploma;\r\n    }\r\n\r\n    struct Diploma {\r\n        bool isValid;\r\n        address university;\r\n        uint256 issueDate;\r\n        bytes32 diplomaHash; // dokumento hash\r\n    }\r\n\r\n    /* ================== SAUGYKLOS ================== */\r\n\r\n    mapping(address => University) public universities;\r\n    mapping(address => Lecturer) public lecturers;\r\n    mapping(address => Student) public students;\r\n\r\n    mapping(address => mapping(bytes32 => uint256)) public courseCredits; \r\n    // student => courseHash => credits\r\n\r\n    mapping(address => Diploma) public diplomas;\r\n    mapping(address => mapping(address => bool)) public accessPermissions;\r\n    // student => employer => access\r\n\r\n    /* ================== IVYKIAI ================== */\r\n\r\n    event UniversityRegistered(address university, string name);\r\n    event LecturerAdded(address lecturer, address university);\r\n    event StudentEnrolled(address student, address university);\r\n    event GradeSubmitted(address student, bytes32 courseHash, uint256 credits);\r\n    event DiplomaIssued(address student);\r\n    event DiplomaRevoked(address student);\r\n    event AccessGranted(address student, address employer);\r\n\r\n    /* ================== 1. UNIVERSITETO REGISTRACIJA ================== */\r\n\r\n    function registerUniversity(address _university, string memory _name)\r\n        public\r\n        onlyOwner\r\n    {\r\n        require(!universities[_university].isRegistered, \"Already registered\");\r\n\r\n        universities[_university] = University({\r\n            isRegistered: true,\r\n            name: _name\r\n        });\r\n\r\n        emit UniversityRegistered(_university, _name);\r\n    }\r\n\r\n    /* ================== 2. DESTYTOJO PRISKYRIMAS ================== */\r\n\r\n    function addLecturer(address _lecturer) public {\r\n        require(universities[msg.sender].isRegistered, \"Only university allowed\");\r\n\r\n        lecturers[_lecturer] = Lecturer({\r\n            isActive: true,\r\n            university: msg.sender\r\n        });\r\n\r\n        emit LecturerAdded(_lecturer, msg.sender);\r\n    }\r\n\r\n    /* ================== 3. STUDENTO REGISTRACIJA ================== */\r\n\r\n    function enrollStudent(address _student) public {\r\n        require(universities[msg.sender].isRegistered, \"Only university allowed\");\r\n        require(!students[_student].isEnrolled, \"Already enrolled\");\r\n\r\n        students[_student] = Student({\r\n            isEnrolled: true,\r\n            university: msg.sender,\r\n            totalCredits: 0,\r\n            hasDiploma: false\r\n        });\r\n\r\n        emit StudentEnrolled(_student, msg.sender);\r\n    }\r\n\r\n    /* ================== 4. PAZYMIU IVEDIMAS ================== */\r\n\r\n    function submitGrade(\r\n        address _student,\r\n        bytes32 _courseHash,\r\n        uint256 _credits\r\n    ) public {\r\n        Lecturer memory l = lecturers[msg.sender];\r\n\r\n        require(l.isActive, \"Not lecturer\");\r\n        require(l.university == students[_student].university, \"Wrong university\");\r\n        require(courseCredits[_student][_courseHash] == 0, \"Already submitted\");\r\n\r\n        courseCredits[_student][_courseHash] = _credits;\r\n        students[_student].totalCredits += _credits;\r\n\r\n        emit GradeSubmitted(_student, _courseHash, _credits);\r\n    }\r\n\r\n    /* ================== 5. DIPLOMO ISDAVIMAS ================== */\r\n\r\n    function issueDiploma(address _student, bytes32 _diplomaHash) public {\r\n        require(universities[msg.sender].isRegistered, \"Only university\");\r\n        require(students[_student].university == msg.sender, \"Wrong university\");\r\n        require(students[_student].totalCredits >= 180, \"Not enough credits\");\r\n        require(!students[_student].hasDiploma, \"Already issued\");\r\n\r\n        students[_student].hasDiploma = true;\r\n\r\n        diplomas[_student] = Diploma({\r\n            isValid: true,\r\n            university: msg.sender,\r\n            issueDate: block.timestamp,\r\n            diplomaHash: _diplomaHash\r\n        });\r\n\r\n        emit DiplomaIssued(_student);\r\n    }\r\n\r\n    /* ================== 6. PRIEIGOS SUTEIKIMAS ================== */\r\n\r\n    function grantAccess(address _employer) public {\r\n        require(students[msg.sender].hasDiploma, \"No diploma\");\r\n        accessPermissions[msg.sender][_employer] = true;\r\n\r\n        emit AccessGranted(msg.sender, _employer);\r\n    }\r\n\r\n    /* ================== 7. DIPLOMO PATIKRA ================== */\r\n\r\n    function verifyDiploma(address _student)\r\n        public\r\n        view\r\n        returns (\r\n            bool valid,\r\n            address university,\r\n            uint256 issueDate,\r\n            bytes32 diplomaHash\r\n        )\r\n    {\r\n        require(accessPermissions[_student][msg.sender], \"Access denied\");\r\n\r\n        Diploma memory d = diplomas[_student];\r\n        return (d.isValid, d.university, d.issueDate, d.diplomaHash);\r\n    }\r\n\r\n    /* ================== 8. DIPLOMO ATSUKIMAS ================== */\r\n\r\n    function revokeDiploma(address _student) public {\r\n        require(universities[msg.sender].isRegistered, \"Only university\");\r\n        require(diplomas[_student].isValid, \"Already revoked\");\r\n\r\n        diplomas[_student].isValid = false;\r\n        emit DiplomaRevoked(_student);\r\n    }\r\n}\r\n",
  "sourcePath": "C:\\Users\\vejas\\OneDrive\\Desktop\\uni\\Blockchains\\smart\\contracts\\DiplomaVerification.sol",
  "compiler": {
    "name": "solc",
    "version": "0.8.0+commit.c7dfd78e.Emscripten.clang"
  },
  "schemaVersion": "3.4.16",
  "updatedAt": "2025-12-17T18:51:26.257Z",
  "networkType": "ethereum",
  "devdoc": {
    "kind": "dev",
    "methods": {},
    "version": 1
  },
  "userdoc": {
    "kind": "user",
    "methods": {},
    "version": 1
  }
}